:100000000C9435010C9466010C9466010C94660105
:100010000C9466010C9466010C9466010C946601C4
:100020000C9466010C9466010C9466010C946601B4
:100030000C9466010C9466010C9466010C946601A4
:100040000C9466010C9411070C9466010C946601E3
:100050000C9466010C9466010C9466010C943D06A8
:100060000C9466010C9407060C94DD050C94660153
:100070000C9466010C9466010C9466010C94660164
:100080000C94E3060C9466010C9466010C946601D2
:100090000C9466010C9466010C9466010C94660144
:1000A0000C9466010C9466010C94B5060C946601E0
:1000B0000C9466010C9466010C9466010C948706FE
:1000C0000C9466010C9466010C9466010C94660114
:1000D0000C9466010C9466010C9466010C94660104
:1000E0000C9466010C9434020C9494030C94110249
:1000F0000C9467030C94C7020C9478030C946B0364
:100100000C9490030C947E030C949A030C94840733
:100110000C946E030C945F030C9463030C944803DB
:100120000C944D030C9442020C9486030C947403BB
:100130000C947A020C949E030C9420020C94E4011B
:100140000C9482030C948C030000210024002700EF
:100150002A002D00300033000101000004010701D6
:100160000A0100002200250028002B002E0031008B
:10017000340002010000050108010B0100000A0B18
:1001800002090C0D0E080703040100000000000026
:10019000000000000000000000000000000000005F
:1001A000000000000000000012111000000000001C
:1001B000000000000000000000000000000000003F
:1001C0000000000020002300260029002C002F0042
:1001D00032000001000003010601090105050505C3
:1001E000070508080808020202020A0A08080404AF
:1001F00004040101010101010101030303030303DD
:100200000303040707070C0C0C0C0C0C0C0C02026B
:10021000020206060606060606060B0B0B0B0B0B68
:100220000B0B0102102020080810204010204080F5
:1002300002010201080402010102040810204080AA
:100240008040201008040201800402018040201038
:100250000804020108040201010204081020408081
:100260000102040810204080840711241FBECFEF34
:10027000D1E2DEBFCDBF00E00CBF12E0A0E0B2E0F3
:10028000ECE0F9E100E00BBF02C007900D92A03551
:10029000B107D9F723E0A0E5B2E001C01D92AA3969
:1002A000B207E1F711E0C5E3D1E000E006C0219715
:1002B0000109802FFE010E947C0CC433D10780E02D
:1002C0000807A9F70E94E1070C94840C0C94000025
:1002D000CF92DF92EF92FF92DC01A03282E0B8076A
:1002E000D4F5A53BB10514F0A4EBB0E04091980320
:1002F00028E830E0241B310947FD3395220F331FD6
:10030000220F331F6901330FEE08FF084091990354
:1003100028E532E0241B310947FD3395220F331FB6
:10032000220F331F032E000C440B550B2C193D09D3
:100330004E095F09B7FF02C0B0E0A0E00E94660A64
:1003400024EB30E040E050E00E943C0AC20ED31E95
:10035000E41EF51ED601E0919703E03380F520916D
:10036000980388E890E0821B910927FD9395880FF8
:10037000991F880F991FA817B90784F02091990336
:1003800088E592E0821B910927FD9395880F991FBC
:10039000880F991FA817B9070CF4CD010297880F91
:1003A000991F4FB7F8942E2F30E0F901EE0FFF1F81
:1003B000E20FF31FEA5FFC4F928381834FBFFF90F0
:1003C000EF90DF90CF900895AF92BF92CF92DF92DF
:1003D000EF92FF920F931F93CF93DF936C017B01FA
:1003E0008B01040F151FEB015E01AE18BF08C0178B
:1003F000D10759F06991D601ED91FC910190F081FE
:10040000E02DC6011995892B79F7C501DF91CF91B0
:100410001F910F91FF90EF90DF90CF90BF90AF9022
:100420000895FC01538D448D252F30E0842F90E0FA
:10043000821B930B541710F0CF96089501970895DF
:10044000FC01918D828D981761F0A28DAE0FBF2FA8
:10045000B11D5D968C91928D9F5F9F73928F90E0FE
:1004600008958FEF9FEF0895FC01918D828D98176D
:1004700031F0828DE80FF11D858D90E008958FEFAA
:100480009FEF0895FC01918D228D892F90E0805C73
:100490009F4F821B91098F739927089589E692E0F7
:1004A0000E94420221E0892B09F420E0822F089566
:1004B000FC01A48DA80FB92FB11DA35ABF4F2C91D9
:1004C000848D90E001968F739927848FA689B789D0
:1004D0002C93A089B1898C91837080648C93938DC7
:1004E000848D981306C00288F389E02D80818F7D6A
:1004F00080830895EF92FF920F931F93CF93DF9322
:10050000EC0181E0888F9B8D8C8D98131AC0E8894F
:10051000F989808185FF15C09FB7F894EE89FF891E
:100520006083E889F98980818370806480839FBFBC
:1005300081E090E0DF91CF911F910F91FF90EF90BC
:100540000895F62E0B8D10E00F5F1F4F0F731127CC
:10055000E02E8C8D8E110CC00FB607FCFACFE88907
:10056000F989808185FFF5CFCE010E945802F1CF35
:10057000EB8DEC0FFD2FF11DE35AFF4FF0829FB77B
:10058000F8940B8FEA89FB8980818062CFCFCF936B
:10059000DF93EC01888D8823B9F0AA89BB89E889AB
:1005A000F9898C9185FD03C0808186FD0DC00FB651
:1005B00007FCF7CF8C9185FFF2CF808185FFEDCFCF
:1005C000CE010E945802E9CFDF91CF91089580E0DB
:1005D00090E0892B29F00E944E0281110E940000B8
:1005E00080E090E0892B49F080E090E0892B29F0B1
:1005F0000E94000081110E94000080E090E0892BA1
:1006000049F080E090E0892B29F00E9400008111E0
:100610000E94000080E090E0892B49F080E090E0AB
:10062000892B29F00E94000081110C94000008958C
:10063000282F30E0F901E458FE4F9491F901EE5D66
:10064000FD4F449124523E4FF9012491222309F495
:1006500035C0992311F191509231F8F4E92FF0E06F
:100660008827EA5CFC4F8F4F0C947C0C67036B036C
:1006700048035F0363034D036E03740378037E0333
:10068000820386038C0390034D0394039A039E0315
:10069000809180008F7780938000E22FF0E0EE0F52
:1006A000FF1FEE59FE4FA591B4918FB7F894EC91CE
:1006B000611148C040954E234C938FBF089580919F
:1006C00080008F7DE8CF80918000877FE4CF84B564
:1006D0008F7784BDE2CF84B58F7DFBCF8091B00052
:1006E0008F778093B000D9CF8091B0008F7DF9CF04
:1006F000809190008F7780939000CFCF8091900071
:100700008F7DF9CF80919000877FF5CF8091A000F9
:100710008F778093A000C1CF8091A0008F7DF9CF0B
:100720008091A000877FF5CF809120018F77809303
:100730002001B3CF809120018F7DF9CF80912001DE
:10074000877FF5CF4E2BB8CFCF93DF9390E0FC019E
:10075000EE5DFD4F249184529E4FFC0184918823CD
:10076000D1F090E0880F991FFC01E85BFE4FA59146
:10077000B491FC01EE59FE4FC591D49161110EC0A8
:100780009FB7F8948C91E22FE0958E238C9328816B
:10079000E223E8839FBFDF91CF9108958FB7F8944C
:1007A000EC91E22BEC938FBFF6CF3FB7F89480919A
:1007B000590290915A02A0915B02B0915C0226B559
:1007C000A89B05C02F3F19F00196A11DB11D3FBF89
:1007D000BA2FA92F982F8827BC01CD01620F711D58
:1007E000811D911D42E0660F771F881F991F4A9552
:1007F000D1F70895AF92BF92CF92DF92EF92FF921E
:100800000F931F93CF93DF936B017A01EC01C05BD1
:10081000DD4F28813CE0389F8001399F100D112465
:10082000A0909603B12C27FF1FC0FB0111821082FC
:1008300088818F5F888388819801280F311D87FD0B
:100840003A95F6012A153B051CF488818C30C4F1D9
:1008500080819181049680349C4908F473C0F6012C
:1008600080819181049670C088819801280F311D84
:1008700087FD3A952A153B05DCF68881A801480FCB
:10088000511D87FD5A95FA01EE0FFF1FE40FF51F6A
:10089000EA5FFC4F808186FFCBCF8881F801E80FAB
:1008A000F11D87FDFA95CF01EE0FFF1FE80FF91F2D
:1008B000EA5FFC4F808160E08F730E941803B8CF1D
:1008C000808191812881A801420F511D27FD5A95F1
:1008D0009A01FA01EE0FFF1FE20FF31FEA5FFC4FD0
:1008E00021813281820F931FF70191838083888158
:1008F0009801280F311D87FD3A95F901EE0FFF1F72
:10090000E20FF31FEA5FFC4F808186FF22C08881DF
:10091000080F111D87FD1A95F801EE0FFF1FE00F5C
:10092000F11FEA5FFC4F808161E08F73DF91CF910F
:100930001F910F91FF90EF90DF90CF90BF90AF90FD
:100940000C94180380E49CE9F701918380838FEF76
:100950008883DF91CF911F910F91FF90EF90DF90EF
:10096000CF90BF90AF900895FC0101900020E9F76F
:100970003197AF01481B590BBC0189E692E00C94FA
:10098000E4018F929F92AF92BF920F931F93CF93E8
:10099000DF93CDB7DEB7A1970FB6F894DEBF0FBED9
:1009A000CDBF19A2423008F44AE08E010F5D1F4FFF
:1009B000842E912CB12CA12CA50194010E946E0AC9
:1009C000E62FB901CA01EA30F4F4E05DD801EE93F4
:1009D0008D01232B242B252B79F790E080E01097B5
:1009E00019F0CD010E94B404A1960FB6F894DEBFB1
:1009F0000FBECDBFDF91CF911F910F91BF90AF90F0
:100A00009F908F900895E95CE1CFCF93DF930E9490
:100A1000B404EC0186E192E00E94B4048C0F9D1FA7
:100A2000DF91CF9108954F925F926F927F928F9254
:100A30009F92AF92BF92CF92DF92EF92FF926B01A3
:100A40007C01AC019B010E946B0C8823C1F089E101
:100A500092E00E94B4047C0186E192E00E94B4041A
:100A60008E0D9F1DFF90EF90DF90CF90BF90AF90C5
:100A70009F908F907F906F905F904F900895460168
:100A80005701E894B7F82FEF3FEF4FE75FE7C50155
:100A9000B4010E946B0C81110DC02FEF3FEF4FE7A7
:100AA0005FE7C501B4010E940C0B18161CF48DE120
:100AB00092E0CFCF2FEF3FEF4FE75FE4C701B601E2
:100AC0000E94F90B18161CF481E292E0C2CF2FEFBE
:100AD0003FEF4FE75FECC701B6010E940C0B87FDAB
:100AE000F3CF20E030E0A901C701B6010E940C0B52
:100AF000B12CA12C87FF0AC06DE289E692E00E942A
:100B00007A025C01F7FAF094F7F8F0942AE037EDF6
:100B100043EA5BE3C701B6010E94A00A2B013C0136
:100B20000E94180B6B017C010E94470B9B01AC01DA
:100B3000C301B2010E949F0A2B013C014AE0C70198
:100B4000B6010E94C1047C01EA0CFB1C6EE289E63E
:100B500092E00E947A02E80EF91E20E030E040E2C6
:100B600051E4C301B2010E94FE0B2B013C010E9423
:100B7000180B4B01B12CA12C4AE0C501B4010E9415
:100B8000C104E80EF91EC501B4010E94470B9B0188
:100B9000AC01C301B2010E949F0A20E030E040E2B4
:100BA00051E40E94FE0B0E94180B90E080E04AE0A6
:100BB0000E94C104E80EF91E4FCF1F920F920FB68C
:100BC0000F9211240BB60F922F933F934F935F9385
:100BD0006F937F938F939F93AF93BF93EF93FF9305
:100BE00089E692E00E945802FF91EF91BF91AF9188
:100BF0009F918F917F916F915F914F913F912F9135
:100C00000F900BBE0F900FBE0F901F9018951F9264
:100C10000F920FB60F9211240BB60F922F938F9352
:100C20009F93EF93FF93E0917902F0917A02808194
:100C3000E0917F02F091800282FD1DC09081809141
:100C400082028F5F8F7320918302821741F0E091BF
:100C50008202F0E0E759FD4F958F80938202FF9169
:100C6000EF919F918F912F910F900BBE0F900FBE20
:100C70000F901F9018958081F2CF1F920F920FB6A0
:100C80000F9211242F933F938F939F93AF93BF9312
:100C90008091550290915602A0915702B09158024E
:100CA0003091540223E0230F2D3758F50196A11DF2
:100CB000B11D209354028093550290935602A09345
:100CC0005702B09358028091590290915A02A09114
:100CD0005B02B0915C020196A11DB11D8093590287
:100CE00090935A02A0935B02B0935C02BF91AF91C4
:100CF0009F918F913F912F910F900FBE0F901F905A
:100D0000189526E8230F0296A11DB11DD2CF1F9280
:100D10000F920FB60F9211240BB60F922F933F93A1
:100D20004F935F936F937F938F939F93AF93BF93F3
:100D3000EF93FF9348E251E064E271E090E080E0DD
:100D40000E94FA03FF91EF91BF91AF919F918F9114
:100D50007F916F915F914F913F912F910F900BBEBB
:100D60000F900FBE0F901F9018951F920F920FB605
:100D70000F9211240BB60F922F933F934F935F93D3
:100D80006F937F938F939F93AF93BF93EF93FF9353
:100D900048EA50E064EA70E083E090E00E94FA03E1
:100DA000FF91EF91BF91AF919F918F917F916F9143
:100DB0005F914F913F912F910F900BBE0F900FBEFF
:100DC0000F901F9018951F920F920FB60F9211243B
:100DD0000BB60F922F933F934F935F936F937F9335
:100DE0008F939F93AF93BF93EF93FF9348E950E0A6
:100DF00064E970E082E090E00E94FA03FF91EF91D5
:100E0000BF91AF919F918F917F916F915F914F9122
:100E10003F912F910F900BBE0F900FBE0F901F9020
:100E200018951F920F920FB60F9211240BB60F92C6
:100E30002F933F934F935F936F937F938F939F93E2
:100E4000AF93BF93EF93FF9348E850E064E870E0FE
:100E500081E090E00E94FA03FF91EF91BF91AF9182
:100E60009F918F917F916F915F914F913F912F91C2
:100E70000F900BBE0F900FBE0F901F901895CF9242
:100E8000DF92EF92FF920F931F93E82FF92F05C087
:100E9000015011092109310961F1908196239417BC
:100EA000B9F305C0015011092109310911F19081EF
:100EB00096239413F7CFC12CD12CE12CF12C0AC02E
:100EC0008FEFC81AD80AE80AF80A0C151D052E0576
:100ED0003F0579F080818623841791F36C2D7D2D59
:100EE0008E2D9F2D1F910F91FF90EF90DF90CF904F
:100EF000089560E070E080E090E01F910F91FF9016
:100F0000EF90DF90CF90089510926C0210926B02D8
:100F100088EE93E0A0E0B0E080936D0290936E02C3
:100F2000A0936F02B093700288E092E090936A02FF
:100F30008093690285EC90E090937602809375022D
:100F400084EC90E0909378028093770280EC90E0BC
:100F500090937A028093790281EC90E090937C02E6
:100F600080937B0282EC90E090937E0280937D02DE
:100F700086EC90E09093800280937F021092820230
:100F8000109283021092840210928502809196033F
:100F9000803398F491E0980F909396038093970391
:100FA00090E0FC01EE0FFF1FE80FF91FEA5FFC4F16
:100FB00088EB9BE09283818308958FEF8093970362
:100FC0000895CF93DF9300D01F92CDB7DEB778940A
:100FD00084B5826084BD84B5816084BD85B582603E
:100FE00085BD85B5816085BD80916E0081608093EF
:100FF0006E00109281008091810082608093810058
:101000008091810081608093810080918000816067
:10101000809380008091B10084608093B1008091C2
:10102000B00081608093B0008091910082608093D5
:101030009100809191008160809391008091900057
:101040008160809390008091A10082608093A100D4
:101050008091A10081608093A1008091A0008160B7
:101060008093A00080912101826080932101809172
:101070002101816080932101809120018160809312
:10108000200180917A00846080937A0080917A00B8
:10109000826080937A0080917A00816080937A00E8
:1010A00080917A00806880937A001092C100E0916C
:1010B0007902F0917A0282E08083E0917502F091EA
:1010C00076021082E0917702F09178028FEC8083B3
:1010D00010928102E0917D02F0917E0286E0808391
:1010E000E0917B02F0917C02808180618083E091BD
:1010F0007B02F0917C02808188608083E0917B029A
:10110000F0917C02808180688083E0917B02F09185
:101110007C0280818F7D808360E08AE00E94A4034E
:1011200061E08BE00E94A40380919703803308F074
:1011300052C061E08CE00E94A40380919703282FA5
:1011400030E0F901EE0FFF1FE20FF31FEA5FFC4FE3
:101150009081907C9C6090831092980310929903E8
:101160002CE0622F0E94700C829FB001112430E0AD
:1011700020E0AB01420F531FFA01EE0FFF1FE40FF7
:10118000F51FEA5FFC4F908196FD17C02F5F3F4F20
:101190002C30310571F7813009F042C11092800086
:1011A00082E0809381001092850010928400B19AB1
:1011B00080916F00826080936F00E09197038E2F83
:1011C00090E0FC01EE0FFF1FE80FF91FEA5FFC4FF4
:1011D000808180648083609100027091010280911F
:1011E0000202909103020E94110BCB010E94680140
:1011F00023E0222E312C60E08BE00E941803C10115
:101200000197F1F761E08BE00E94180383E290E020
:101210000197F1F760E08BE00E941803ECE2F2E046
:101220006491E6EEF1E08491E82FF0E0EE0FFF1F0D
:10123000EE53FE4F8591949100E412E42FE030E0EC
:10124000462F0E943F07611571058105910529F020
:101250006F5F7F4F8F4F9F4F9F702AE330E040E0DA
:1012600050E00E943C0ACA01B9010E94490B2B01BF
:101270003C01AC019B0160E070E080EE90E40E94D4
:101280009F0A6B017C01C0926502D0926602E092D7
:101290006702F09268028090610290906202A090D2
:1012A0006302B0906402A50194010E949F0A2AE0A3
:1012B00037ED43E25CE30E94FE0BA70196010E941A
:1012C000A00A69837A838B839C83A5019401C7015B
:1012D000B6010E94A00A2DEC3CEC4CEC5DE30E94B0
:1012E000FE0B20E030E040E05FE30E94FE0B9B013C
:1012F000AC0169817A818B819C810E94A00A2DECCE
:101300003CEC4CEC5EE30E94FE0B60935D0270933C
:101310005E0280935F0290936002C0926102D0925D
:101320006202E0926302F092640285E292E00E941F
:101330000505C301B2010E94130586E392E00E94F5
:10134000050560915D0270915E0280915F0290914F
:1013500060020E94130581E492E00E9405056091FD
:1013600000027091010280910202909103020E949A
:10137000130589E492E00E94050560916502709171
:10138000660280916702909168020E94130520E036
:1013900030E040E951E460915D0270915E0280911D
:1013A0005F02909160020E94FE0B20E030E044EB6F
:1013B00052E40E94A00A609300027093010280939D
:1013C0000202909303020E94110BCB010E9468015C
:1013D0000E94D5034B015C0188E5C82E82E0D82E1F
:1013E000E12CF12C0E94D503681979098A099B091F
:1013F000683E734081059105A8F3F1E0CF1AD1084A
:10140000E108F10828EE820E23E0921EA11CB11C17
:10141000C114D104E104F10429F70E94E702EBCEE4
:10142000823061F4109290008093910010929500A8
:101430001092940088BB80937100BFCE833069F412
:101440001092A00082E08093A1001092A50010925B
:10145000A40089BB80937200B0CE8111AECE1092F1
:10146000200182E080932101109225011092240135
:101470008ABB80937300A1CE052E97FB1EF40094C7
:101480000E94530A57FD07D00E946E0A07FC03D042
:101490004EF40C94530A50954095309521953F4F4A
:1014A0004F4F5F4F089590958095709561957F4F50
:1014B0008F4F9F4F08950E94900AA59F900DB49F53
:1014C000900DA49F800D911D11240895B7FF0C94D9
:1014D0005B0A0E945B0A821B930B0895A1E21A2EFD
:1014E000AA1BBB1BFD010DC0AA1FBB1FEE1FFF1FC8
:1014F000A217B307E407F50720F0A21BB30BE40B18
:10150000F50B661F771F881F991F1A9469F760955E
:101510007095809590959B01AC01BD01CF01089518
:10152000A29FB001B39FC001A39F700D811D112424
:10153000911DB29F700D811D1124911D0895505869
:10154000BB27AA270E94B70A0C94BF0B0E94B10BBD
:1015500038F00E94B80B20F039F49F3F19F426F4BC
:101560000C94AE0B0EF4E095E7FB0C94A80BE92F5E
:101570000E94D00B58F3BA176207730784079507C8
:1015800020F079F4A6F50C94F20B0EF4E0950B2EF6
:10159000BA2FA02D0B01B90190010C01CA01A001C5
:1015A0001124FF27591B99F0593F50F4503E68F120
:1015B0001A16F040A22F232F342F4427585FF3CF61
:1015C000469537952795A795F0405395C9F77EF432
:1015D0001F16BA0B620B730B840BBAF09150A1F07B
:1015E000FF0FBB1F661F771F881FC2F70EC0BA0F01
:1015F000621F731F841F48F4879577956795B79589
:10160000F7959E3F08F0B0CF9395880F08F0992783
:10161000EE0F9795879508950E94840B08F481E05A
:1016200008950E94180B6894B1110C94F30B08955F
:101630000E94D80B88F09F5798F0B92F9927B7517F
:10164000B0F0E1F0660F771F881F991F1AF0BA9566
:10165000C9F714C0B13091F00E94F20BB1E00895C7
:101660000C94F20B672F782F8827B85F39F0B93FB9
:10167000CCF3869577956795B395D9F73EF4909519
:101680008095709561957F4F8F4F9F4F0895E89497
:1016900009C097FB3EF490958095709561957F4FBA
:1016A0008F4F9F4F9923A9F0F92F96E9BB27939568
:1016B000F695879577956795B795F111F8CFFAF478
:1016C000BB0F11F460FF1BC06F5F7F4F8F4F9F4FA9
:1016D00016C0882311F096E911C0772321F09EE807
:1016E000872F762F05C0662371F096E8862F70E06D
:1016F00060E02AF09A95660F771F881FDAF7880F47
:101700009695879597F90895990F0008550FAA0B9C
:10171000E0E8FEEF16161706E807F907C0F0121604
:101720001306E407F50798F0621B730B840B950B07
:1017300039F40A2661F0232B242B252B21F408955C
:101740000A2609F4A140A6958FEF811D811D0895F9
:1017500097F99F6780E870E060E008959FEF80EC64
:10176000089500240A941616170618060906089507
:1017700000240A9412161306140605060895092E6D
:101780000394000C11F4882352F0BB0F40F4BF2BDC
:1017900011F460FF04C06F5F7F4F8F4F9F4F08951C
:1017A00057FD9058440F551F59F05F3F71F0479512
:1017B000880F97FB991F61F09F3F79F087950895F7
:1017C000121613061406551FF2CF4695F1DF08C016
:1017D000161617061806991FF1CF86957105610533
:1017E00008940895E894BB2766277727CB0197F9DB
:1017F00008950E94840B08F48FEF08950E94110C45
:101800000C94BF0B0E94B10B38F00E94B80B20F073
:10181000952311F00C94A80B0C94AE0B11240C948E
:10182000F30B0E94D00B70F3959FC1F3950F50E01E
:10183000551F629FF001729FBB27F00DB11D639F82
:10184000AA27F00DB11DAA1F649F6627B00DA11D28
:10185000661F829F2227B00DA11D621F739FB00DCE
:10186000A11D621F839FA00D611D221F749F33273E
:10187000A00D611D231F849F600D211D822F762FD7
:101880006A2F11249F5750409AF0F1F088234AF0B4
:10189000EE0FFF1FBB1F661F771F881F9150504020
:1018A000A9F79E3F510580F00C94A80B0C94F30B04
:1018B0005F3FE4F3983ED4F3869577956795B795A7
:1018C000F795E7959F5FC1F7FE2B880F911D9695C1
:1018D000879597F908950E94840B880B990B0895BA
:1018E000991B79E004C0991F961708F0961B881F72
:1018F0007A95C9F780950895EE0FFF1F881F8BBF5B
:0C1900000790F691E02D1994F894FFCFA9
:10190C000000B442000000007A02E4011102C70298
:10191C004202200234020D0A006E616E00696E668E
:10192C00006F76660044797374616E7320616B741A
:10193C0075616C6E7900537465726F77616E696551
:10194C0000506F7A79636A610055636879620000B0
:00000001FF
